:020000040800F2
:10000000FCFF0020ED200000E5200000E5200000BE
:10001000E5200000E5200000E5200000E5200000CC
:10002000E5200000E5200000E5200000E5200000BC
:10003000E5200000E5200000E5200000E5200000AC
:10004000E5200000E5200000E5200000E52000009C
:10005000E5200000E5200000E5200000E52000008C
:10006000E5200000E5200000E5200000E52000007C
:10007000E5200000E5200000E5200000E52000006C
:10008000E5200000E5200000E5200000E52000005C
:10009000E5200000E5200000E5200000E52000004C
:1000A000E5200000E5200000E5200000E52000003C
:1000B000E5200000E5200000E5200000E52000002C
:1000C000E5200000E5200000E5200000E52000001C
:1000D000E5200000E5200000E5200000E52000000C
:1000E000E5200000E5200000E5200000E5200000FC
:1000F000E5200000E5200000E5200000E5200000EC
:10010000E5200000E5200000E5200000E5200000DB
:10011000E5200000E5200000E5200000E5200000CB
:10012000E5200000E5200000E5200000E5200000BB
:10013000E5200000E5200000E5200000E5200000AB
:10014000E5200000E5200000E5200000E52000009B
:1001500001480068704700BF8400002081B000F2B1
:100160000C02116000F208021368C3F3000202B926
:10017000F8E700F20C02126890B201B07047FFFF7E
:1001800081B0ADF800100146BDF800000B68C3F364
:10019000C01202B9FAE70A1D106001B07047FFFFF4
:1001A00081B0CDF800E081B20348FFF7E9FFDDF848
:1001B00000E001B0704700BF0050004081B0CDF8B2
:1001C00000E081B20348FFF7DBFFDDF800E001B09B
:1001D000704700BF004C004081B0CDF800E081B214
:1001E0000348FFF7CDFFDDF800E001B0704700BF26
:1001F0000048004083B0CDF800E000F0FF031A098A
:10020000104603F00F02134614E0194A02921FE051
:10021000184A02921CE0184A029219E0174A029208
:1002200016E0174A029213E0164A029210E0164AAC
:1002300002920DE00028E8D00128E9D00228EAD097
:100240000328EBD00428ECD00528EDD00628EED00A
:10025000012212B29A40ADF8042002980A46BDF875
:10026000041000F0EDFADDF800E003B0704700BFC5
:1002700000080140000C0140001001400014014042
:1002800000180140001C01400020014081B0CDF861
:1002900000E081B20348FFF761FFDDF800E001B044
:1002A000704700BF0038004081B0CDF800E081B257
:1002B0000348FFF753FFDDF800E001B0704700BFCF
:1002C000003C004081B0CDF800E081B20348FFF768
:1002D00045FFDDF800E001B0704700BF003001408D
:1002E00082B0CDF800E0034619460191FFF730FFD8
:1002F00040F2E83100FB01F201990A601F490978D8
:10030000C1F30311C8B21E4909180878C0B21A1DFA
:100310001968C140116019490988C1F3022188B2E6
:10032000174909180878C0B203F20802191D0968B4
:10033000C140116011490988C1F3C22188B2104936
:1003400009180878C0B203F20C02191D0968C140EF
:1003500011600A490988C1F3813188B20949091835
:100360000978C8B203F2100203F20C010968B1FB6C
:10037000F0F11160DDF800E002B0704704100240B7
:10038000A4250000B20A000081B0CDF800E081B2DF
:100390000348FFF7E3FEDDF800E001B0704700BF5F
:1003A0000030014081B0CDF800E081B20348FFF792
:1003B000E7FEDDF800E001B0704700BF0038014003
:1003C00081B0CDF800E081B20348FFF7C7FEDDF849
:1003D00000E001B0704700BF003C004081B0CDF8A4
:1003E00000E081B20348FFF7CBFEDDF800E001B08A
:1003F000704700BF0044004081B0194900EA010184
:10040000084600220EE0042022E0082020E0102010
:100410001EE020201CE040201AE0802018E040F27E
:10042000001015E00F498842EDD00F498842ECD00A
:100430000E498842EBD00E498842EAD00D498842E5
:10044000E9D00D498842E8D00C498842E7D01046EF
:100450000B49096841EA000209490A6001B0704786
:1004600000FCFFFF00080140000C014000100140AB
:100470000014014000180140001C01400020014010
:100480001810024081B0CDF800E081B20348FFF7B8
:1004900065FEDDF800E001B0704700BF00380040A5
:1004A00084B0CDF800E0ADF80C2001900291BDF8C9
:1004B0000C40BDF80C305B1EADF80C307CB1019BDC
:1004C0001B78DCB2A0B2084C2468A047029B1870CD
:1004D000029B5B1C0293019B5B1C0193E7E7DDF829
:1004E00000E004B0704700BFA000002089B0CDF844
:1004F00000E0834698B28C46BDF824100A9E04ACF6
:10050000ADF80410ADF808002046FFF7E9FEBDF88D
:100510000800BDF80410644CA34512D101256DB24A
:10052000624C2560624D634C2560634D634C2560D1
:10053000634D644C2560644D644C2560079C0394B6
:1005400056E0634CA34512D101256DB2614C256084
:10055000614D584C2560614D584C2560604D594C9B
:100560002560604D594C2560069C039440E05E4C2C
:10057000A34512D101256DB25C4C25605C4D4D4CFC
:1005800025605C4D4D4C25605B4D4E4C25605B4DB0
:100590004E4C2560069C03942AE0594CA34512D189
:1005A00001256DB2574C2560574D424C2560574D83
:1005B000424C2560564D434C2560564D434C2560BA
:1005C000069C039414E0544CA34511D101256DB24F
:1005D000524C2560524D374C2560524D374C2560AA
:1005E000514D384C2560514D384C2560069C039484
:1005F000ADF80410ADF80800304600F099F8BDF8E9
:100600000800BDF804100BF1100500242C600BF15C
:1006100010052C680C432C600BF10C0500242C6099
:1006200018B140F4806080B2FFE70BF10C052C6834
:1006300004432C600BF10C060125346865F34D343E
:1006400034600BF10C060125346865F3C304346093
:100650000BF10C060125346865F3820434600BF15C
:10066000140500242C60039D192465434FEA8C0473
:10067000B5FBF4F76424B7FBF4F4260135096424D0
:100680006C433C1B240104F232056424B5FBF4F4F2
:1006900004F00F0446EA04040BF10805A4B22C6030
:1006A000DDF800E009B070470038014038034242ED
:1006B000A503000090000020FFFFFFFF9400002032
:1006C000FFFFFFFF98000020FFFFFFFF9C000020BE
:1006D00000440040C4034242DD030000FFFFFFFF6F
:1006E000FFFFFFFFFFFFFFFF00480040C80342423B
:1006F000D9010000FFFFFFFFFFFFFFFFFFFFFFFF2C
:10070000004C0040CC034242BD010000FFFFFFFF50
:10071000FFFFFFFFFFFFFFFF00500040D0034242FA
:10072000A1010000FFFFFFFFFFFFFFFFFFFFFFFF33
:1007300081B0CDF800E0012252B23E490A6000F2D9
:1007400068010B686FF0006103EA0102144603F0D0
:100750000061C90E0B4602F00041B1F1004F02D119
:1007600035490A6801E035490A6804F47021090C2A
:100770000E464FF6FF7104EA01010D4604F44011E4
:10078000B1F5401F0DD16FF0706102EA01010E4614
:100790002A490A686FF070610A4028490A603246A7
:1007A00016E004F48011B1F5801F09D14FF0030168
:1007B000B140C94302EA010141F070610A4607E015
:1007C000610D090105FA01F1C9430A4042F0706266
:1007D0002BB1610D090105FA01F10A43FFE704F0AD
:1007E0000041B1F1004F02D113490A6001E0134901
:1007F0000A6040F2000A81464FEA8A0109EB0101D2
:100800000968B1F1FF3F10D009F134014FEA8A03C2
:10081000C91809680A4609EB030109680846114628
:10082000FFF7E8FC0AF1010AE6E7DDF800E001B0B5
:10083000704700BF000342421C0001400400014019
:1008400081B0CDF800E08CB21546774B00EA030387
:100850001E461846FFF7D0FDB4F1FF0F0CD1734BC5
:100860009D4203D14FF033333360D9E0422D03D1A1
:100870004FF044333360D3E04FF6FF739C4214D102
:100880006A4B9D4207D14FF033333360341D4FF034
:1008900033332360C4E0422D07D14FF0443333603B
:1008A000341D4FF044332360BAE00021002005F0EE
:1008B00001030BB100211DE005F0020333B105F483
:1008C000C0730BB1082100E0042113E005F004031C
:1008D00033B105F020030BB1042100E0002109E051
:1008E00005F0080333B105F020030BB10C2100E043
:1008F0000821FFE74E4B05EA03030BB1032009E093
:1009000005F400730BB1022004E005F480630BB121
:100910000120FFE705F00C030BB10143FFE704F0F2
:10092000FF039BB2002B3BD0376800201FFA84F8EE
:1009300032462E4608282CD24FF0010303FA00F469
:1009400008EA0403A34222D185004FF00F03AB4015
:10095000DB4307EA030401FA05F344EA03031D46F7
:1009600006F48173B3F5817F05D102F214044FF0D0
:1009700001038340236006F08203822B05D102F23B
:1009800010044FF00103834023602F46FFE7401C13
:10099000D0E717601FFA88F00F463146164602E08E
:1009A0000F462946A0B2B0F1FF0F39D9331DD3F855
:1009B00000800022082A30D202F208044FF001031E
:1009C00003FA04F400EA0403A34224D195004FF093
:1009D0000F03AB40DB4308EA030807FA05F348EAD4
:1009E000030801F48173B3F5817F07D106F2140582
:1009F00002F208044FF00103A3402B6001F08203D0
:100A0000822B07D106F2100502F208044FF0010311
:100A1000A3402B60FFE7521CCCE7331DC3F80080D6
:100A2000DDF800E001B0704700FCFFFF1400080093
:100A30000008080083B0CDF800E08AB2014690B209
:100A400083B2421E90B26BB10A78D4B2ADF8040002
:100A50000291A0B2054C2468A0470299BDF8040099
:100A6000491CEDE7DDF800E003B07047A40000206A
:100A700081B000230360CB009BB242EA0303046809
:100A80009BB244EA03030360051D13141C462B6844
:100A900064F382032B6000F21C0500242B6864F3CE
:100AA000CB232B600124036864F38613036001B039
:100AB000704702040608FFFF41F25777C0F20007B3
:100AC0007F1EFDD100BF00BF00BF00BF00BF704749
:100AD00082B0CDF800E08DF804000020074C2468B7
:100AE000A04701A908460121FFF7A4FF0120034CFC
:100AF0002468A047DDF800E002B07047A80000209D
:100B000042F6DF67C0F200077F1EFDD100BF00BFC5
:100B100000BF00BF00BF7047C3B0CDF800E04191F7
:100B20008DF808210DF1040B0BF5807ADFF834C045
:100B300001F01AFA01AB187000200B4C2468A04792
:100B40009DF808315C1C01ABA2B241991846FFF731
:100B5000A7FC0120044C2468A047DDF800E043B066
:100B6000704700BF50220000A800002081B0CDF8DF
:100B700000E0019D2C4610B408B493B28AB201463D
:100B80000348FFF7B3FC02B0DDF800E001B07047A6
:100B90000038014081B0CDF800E04FF0420289B248
:100BA000FFF74EFEDDF800E001B07047FFFFFFFFEA
:100BB0004DF2BF47C0F201077F1EFDD100BF00BF4D
:100BC00000BF00BF00BF704781B0CDF800E0044A0D
:100BD00089B2FFF735FEDDF800E001B0704700BFD5
:100BE0001400080083B0CDF800E08DF804000291F5
:100BF0000B4C0C4B1C600C4C0C4B1C60012464B265
:100C00000B4B1C601046FFF793FD029A9DF80410F1
:100C10000848FFF72DFFDDF800E003B0704700BF84
:100C2000A902000088000020C10300008C00002001
:100C3000BC034242003C004081B0FAB590EA020693
:100C40004CBF4FF000464FF000064FEA00214FEA3C
:100C500040031B0E12BF41F000414FF000002CE09A
:100C6000FF2B26D04FEA02244FEA42052D0E12BF79
:100C700044F000444FF000001FE0FF2D19D05B1935
:100C8000A1FB0454002C5CBF64005B1E803424BFB5
:100C90005B1C64087E3BDCBF4FF000000DE0FF2BC7
:100CA00007D24FEA142030F4000040EAC35030432A
:100CB00003E0FF27FF0546EA0700BDE8FA4001B060
:100CC0007047FFFF81B0CDF800E0019D2C4610B4C5
:100CD00008B493B28AB201460348FFF707FC02B09A
:100CE000DDF800E001B070470048004081B006B573
:100CF0004FEA40024FEA12627F3A44BF4FF00000D1
:100D000011E0D2F11F0209D94FEA002141F0004160
:100D1000D14000284CBF4842084604E000284FF06C
:100D2000004058BF401EBDE8064001B07047FFFFBD
:100D300040F2A737C0F200077F1EFDD100BF00BF01
:100D400000BF00BF00BF704747F2FF67C0F2010756
:100D50007F1EFDD100BF00BF00BF00BF00BF7047B6
:100D600081B0CDF800E0019D2C4610B408B493B2D8
:100D70008AB201460348FFF7B9FB02B0DDF800E094
:100D800001B070470044004081B0CDF800E0017828
:100D9000CCB2A0B2034C2468A0470020DDF800E0EC
:100DA00001B070478000002081B02DE9FA414FEA80
:100DB00002244FEA42052D0E04D1002C18BF4FF03B
:100DC00000006CE044F00044FF2D5FD04FEA940433
:100DD000002A48BF64424FEA00214FEA40031B0E3D
:100DE00005D1002914BF4FF00000104657E041F034
:100DF0000041FF2B4BD04FEA9101002848BF4942E8
:100E00005E1B41BF0F4621463C46764248BF2B46FB
:100E1000192E47BF44FA06F7C9194FF0000803E03E
:100E2000C6F11C0704FA07F8002904BF4FF00000C0
:100E300035E046BF49424FF001074FF00007A3F1EC
:100E400001034900FBD511F080040DD001F020050D
:100E500048EA0508803128BF5B1C01F0400458EACD
:100E6000040808BF21F480719B1CDCBF4FF0000018
:100E700015E0FF2B0DD221F0FF014FEA41014FEAAF
:100E8000512040EAC35040EAC77008E010464FEADC
:100E9000D0774FEAC777FF204FEAC0503843BDE80C
:100EA000FA4101B07047FFFF81B000910146009800
:100EB0000B461C465A1C15460346421C10461A781F
:100EC000227022780AB12B46F3E7084601B070473A
:100ED000026803490A60011D0A6802490A607047F6
:100EE000A4000020A000002001490860704700BF56
:100EF0009C81214200F208010A6801490A6070479A
:100F0000A800002081B010B5904208BF2AE040EA56
:100F100002044FEA4404002C08BF23E0440004D13B
:100F2000944201D4A41C012C1CE04FEA40044FEA77
:100F30001464FF2C0AD14FEA42044FEA1464FF2CD8
:100F400004D14FEAD274B4EBD0340BE0002A06D4BB
:100F5000002802DC0024012C04E0904202E000287A
:100F600048BF8242BDE8104001B0704781B0CDF863
:100F700000E01E20FFF7ACFDFFF7C2FDDDF800E04A
:100F800001B0704781B0CDF800E0CAB201464FF021
:100F90007E5088465FFA82F98246B9F1000F13D974
:100FA00009F00102D2B22AB140465246FFF744FE90
:100FB0008246FFE74FEA59095FFA89F940464246FF
:100FC000FFF73AFE8046E8E75046DDF800E001B062
:100FD0007047FFFF82B0CDF800E000218DF80410CB
:100FE00000218DF805108DF8061001AA410009B204
:100FF000A031C8B211460222FFF78EFD01AB591C89
:1010000009780A0292B2991C097842EA010188B271
:10101000DDF800E002B0704784B0CDF800E00021B8
:101020008DF8081000218DF809108DF80A108DF840
:101030000B1000F240018DF80400C8B2FFF748FD24
:101040009DF80400FFF75CFD00F00F018DF80C1017
:101050002AE0FFF731FDFFF76BFEFFF769FEFFF7B0
:1010600067FEFFF765FEFFF763FE29E0FFF748FD27
:10107000FFF746FDFFF744FD22E0FFF741FDFFF7D4
:101080003FFDFFF73DFDFFF73BFD19E0FFF75CFE7D
:1010900016E0FFF78DFDFFF733FDFFF731FDFFF79A
:1010A0002FFDFFF72DFD0BE09DF80C100029D0D08F
:1010B0000229DBD00429E0D00629E7D00829E8D0AE
:1010C00002A903220020FFF727FD02AB591C097873
:1010D0000A04991C0978090289B20A43D91C0978C3
:1010E00042EA01010846DDF800E004B07047FFFF66
:1010F000002224490B880846008800F47F400880BD
:10110000002094B282B2102A33D202F0010080B2E1
:1011100001280BD1500880B241001B4840180088BC
:1011200000F0FF00C0B24440A4B20BE0500880B20F
:101130004100154840180088000AC0B284EA000047
:1011400081B28CB2082091B2C2B2002A0ED904F446
:10115000004080B228B16400A4B284F44054A4B228
:1011600001E06400A4B2521ED2B2EEE7481C82B283
:10117000C9E7200B80B200F00F0102480380C8B21B
:10118000704700BFBA000020AC00002081B0CDF84D
:1011900000E002B5002802D5FFF7A8FD13E04FEAF2
:1011A00040014FEA11617F393CBF4FF000000AE077
:1011B000D1F11F0105D34FEA002040F00040C840A4
:1011C00001E00020401EBDE80240DDF800E001B073
:1011D0007047FFFF81B0FAB590EA02064CBF4FF0AE
:1011E00000464FF00006010243001B0E12BF41F003
:1011F00000414FF000003BE0FF2B35D05FEA0224B6
:101200005FEA42055FEA156511BF44F000444FF004
:10121000FF4030432CE0FF2D26D05B1B0020202711
:1012200064084908A14240EB000028BF091B7F1E4B
:1012300004D0002918BF4900F4D1B84010F0004F85
:1012400004BF4000B3F1010380302CBF5B1C4000A1
:101250007F33DCBF4FF000000AE0FF2B04D2400ACE
:1012600040EAC350304303E0FF27FF0556EA07007A
:10127000BDE8FA4001B0704781B0002808BF0FE018
:1012800002B54FF09E0202D4521E4000FCD58030C1
:101290002CBF521C4000400A40EAC250BDE8024048
:1012A00001B0704781B082F000422DE9FA414FEA67
:1012B00002244FEA42052D0E04D1002C18BF4FF036
:1012C00000006CE044F00044FF2D5FD04FEA94042E
:1012D000002A48BF64424FEA00214FEA40031B0E38
:1012E00005D1002914BF4FF00000104657E041F02F
:1012F0000041FF2B4BD04FEA9101002848BF4942E3
:101300005E1B41BF0F4621463C46764248BF2B46F6
:10131000192E47BF44FA06F7C9194FF0000803E039
:10132000C6F11C0704FA07F8002904BF4FF00000BB
:1013300035E046BF49424FF001074FF00007A3F1E7
:1013400001034900FBD511F080040DD001F0200508
:1013500048EA0508803128BF5B1C01F0400458EAC8
:10136000040808BF21F480719B1CDCBF4FF0000013
:1013700015E0FF2B0DD221F0FF014FEA41014FEAAA
:10138000512040EAC35040EAC77008E010464FEAD7
:10139000D0774FEAC777FF204FEAC0503843BDE807
:1013A000FA4101B07047FFFF01490860704700BF74
:1013B000B481224201490860704700BFA80122425F
:1013C00001490860704700BF90012142014908604F
:1013D000704700BF8801224201490860704700BF82
:1013E0008001214201490860704700BFA881224264
:1013F00001490860704700BFAC0122420149086002
:10140000704700BFB001224281B0CDF800E0094929
:1014100002B440F2000340F2000240F20001FFF784
:1014200051FC01B0044A05490A600020DDF800E0E3
:1014300001B0704750230000D90100008000002057
:1014400081B0CDF800E0094902B440F2000340F257
:10145000000240F20001FFF783FC01B0044A054995
:101460000A600020DDF800E001B070472824000089
:10147000DD0300008000002081B0CDF800E0011DF8
:101480000A680168C8B21146034AFFF7ABFB0020A7
:10149000DDF800E001B070479424000081B0CDF881
:1014A00000E0011D0A680168C8B21146034AFFF74F
:1014B00099FB0020DDF800E001B0704794240000A3
:1014C00081B0CDF800E0A9E0012905D140F220016A
:1014D0006548FFF75FFB04E040F220016248FFF738
:1014E00073FBBBE0012905D140F208015F48FFF71B
:1014F00051FB04E040F208015C48FFF765FBADE0FA
:10150000012905D144F200015948FFF743FB04E0EB
:1015100044F200015648FFF757FB9FE0012905D12F
:1015200040F200415148FFF735FB04E040F2004132
:101530004E48FFF749FB91E0012905D140F6000133
:101540004A48FFF727FB04E040F600014748FFF751
:101550003BFB83E0012905D141F200014348FFF73D
:1015600019FB04E041F200014048FFF72DFB75E054
:10157000012905D141F200013D48FFF70BFB04E0D2
:1015800041F200013A48FFF71FFB67E0012905D14E
:1015900040F600013648FFF7FDFA04E040F600018E
:1015A0003348FFF711FB59E0012905D140F2400112
:1015B0002F48FFF7EFFA04E040F240012C48FFF714
:1015C00003FB4BE0012905D140F220012848FFF739
:1015D000E1FA04E040F220012548FFF7F5FA3DE08A
:1015E000012905D140F240012248FFF7D3FA04E077
:1015F00040F240011F48FFF7E7FA2FE0012905D12B
:1016000040F280011B48FFF7C5FA04E040F2800178
:101610001848FFF7D9FA21E0012020E000283FF424
:1016200053AF01283FF45EAF02283FF469AF0328AF
:101630003FF474AF04283FF47FAF05283FF48AAF2E
:1016400006283FF495AF0728A0D00828ACD0092879
:10165000B8D00A28C4D00B28D0D0DDE70020DDF8B0
:1016600000E001B0704700BF0008014000100140D9
:1016700000140140000C014081B0CDF800E0A9E069
:10168000012905D140F210016548FFF783FA04E013
:1016900040F210016248FFF797FABBE0012905D13B
:1016A00040F204015F48FFF775FA04E040F20401DC
:1016B0005C48FFF789FAADE0012905D142F200014B
:1016C0005948FFF767FA04E042F200015648FFF775
:1016D0007BFA9FE0012905D140F200415148FFF714
:1016E00059FA04E040F200414E48FFF76DFA91E0EC
:1016F000012905D140F600014A48FFF74BFA04E002
:1017000040F600014748FFF75FFA83E0012905D161
:1017100041F200014348FFF73DFA04E041F20001C5
:101720004048FFF751FA75E0012905D140F2010167
:101730003B48FFF72FFA04E040F201013848FFF779
:1017400043FA67E0012905D140F200413648FFF72E
:1017500021FA04E040F200413348FFF735FA59E03E
:10176000012905D140F200212F48FFF713FA04E0C8
:1017700040F200212C48FFF727FA4BE0012905D160
:1017800040F200112848FFF705FA04E040F200118A
:101790002548FFF719FA3DE0012905D140F2400143
:1017A0002248FFF7F7F904E040F240011F48FFF735
:1017B0000BFA2FE0012905D140F280011B48FFF709
:1017C000E9F904E040F280011848FFF7FDF921E053
:1017D000012020E000283FF453AF01283FF45EAF22
:1017E00002283FF469AF03283FF474AF04283FF4A4
:1017F0007FAF05283FF48AAF06283FF495AF07284E
:10180000A0D00828ACD00928B8D00A28C4D00B280A
:10181000D0D0DDE70020DDF800E001B0704700BF68
:10182000000801400010014000140140000C01407C
:1018300081B0CDF800E0094902B440F2000340F263
:10184000000240F20001FFF791F901B0044A054996
:101850000A600020DDF800E001B07047BC23000002
:10186000A50300008000002081B0CDF800E0094908
:1018700002B440F2000340F2000240F20001FFF720
:101880006FFA01B0044A05490A600020DDF800E063
:1018900001B0704728240000DD0300008000002014
:1018A00001490860704700BFAC012242014908604D
:1018B000704700BF9481224201490860704700BF11
:1018C0009881214201490860704700BFB00122425F
:1018D00001490860704700BF9881224201490860B1
:1018E000704700BFB081224201490860704700BFC5
:1018F000B081224201490860704700BFA80122421E
:1019000001490860704700BF988121420149086081
:10191000704700BFA081224201490860704700BFA4
:10192000A481224201490860704700BF9C81214286
:1019300001490860704700BFB88122420149086030
:10194000704700BF8C01224201490860704700BF08
:101950009401214281B0CDF800E08B4609E0584661
:10196000FFF78AFD0AE05846FFF798FD06E00120E0
:1019700004E00028F3D00128F5D0F8E7DDF800E016
:1019800001B0704783B0CDF800E0024610460D224A
:101990008DF808200A228DF809201FE0FFF7F4F9DE
:1019A00023E002782AB10190FFF7EEF90198401C7C
:1019B000F7E71AE002782AB10190FFF7E5F90198FC
:1019C000401CF7E702AA1046FFF7DEF90DF1090205
:1019D0001046FFF7D9F908E0062007E00029DDD01E
:1019E0000129DED00229E5D0F6E70020DDF800E08D
:1019F00003B0704781B0CDF800E05FFA81F95FFA7B
:101A000082FA0FE05FFA8AF15FFA89F0FFF734FE9D
:101A10000DE05FFA8AF15FFA89F0FFF751FD06E009
:101A2000012004E00028EDD00128F2D0F8E7DDF82D
:101A300000E001B07047FFFF82B0CDF800E0024641
:101A40000C460020002149B20192019AB2F1FF3FF9
:101A500006D1714A11462046FFF726FA0320D7E047
:101A6000012501AAD21C127802F08002D2B272B112
:101A700001AAD31C1A7882F080021A706A1CD3B2B1
:101A80002D222270621C1446DEB2A24601E0A2465C
:101A9000EEB2019A32B9614A11465046FFF704FA94
:101AA0000020B5E0019AB2F1FF4F06D15C4A114621
:101AB0005046FFF7F9F9F0B2AAE05FFA80F94FFA61
:101AC00081F8019A4FF07E50FFF71CFA40F20000B7
:101AD00000DD012048B1019A5248FFF7ADF80190AE
:101AE000A8F101084FFA88F8EBE7019A4D48FFF793
:101AF00009FA40F2000000DC012048B1019A4A488E
:101B0000FFF79AF8019008F101084FFA88F8ECE71E
:101B1000019A5200019201AAD21C12787F3AD0B2E7
:101B200001AAD31C01221A70019A8240019201AAD3
:101B3000D21C127830328AF800200AF10100B8F184
:101B4000010F06DBB8F1060F03DC05465FFA89F1E9
:101B500003E02E220270451C012106204FFA88F472
:101B600000B301AAD31C00221A70019A9300019AB3
:101B7000D2180192019A5200019201AAD21C127845
:101B800030322A706D1C51B9621E52B253B222B962
:101B90002E222A706D1C0121FFE75CB2FFE7401E78
:101BA000C0B2DDE7294660B24A1E1278302A01D160
:101BB000491EF9E74A1E12782E2A01D1491EFFE775
:101BC00010B365220A70491C002806DA2D220A701B
:101BD000491C424250B243B200E043B2D8B2DAB23A
:101BE000092A07D90A22B0FBF2F2D2B230320A70C7
:101BF000491CFFE70A23B0FBF3F203FB1202D2B247
:101C000030320A70481C00E00846002202700020B2
:101C1000DDF800E002B07047250000202900002018
:101C20002B00002000002041CDCCCC3D83B0CDF86E
:101C300000E0FFF79BF9FEF763FF0022082A0FD2AE
:101C400051000E48401802908DF80420D0B2FFF7E2
:101C5000C1F99DF8042002990880521CD2B2EDE728
:101C600007480588FFF744FA854201D0002000E0CC
:101C70000120DDF800E003B0704700BFAC00002099
:101C8000BA00002081B0CDF800E003460846FFF717
:101C90001FF91846FFF72EF90120034C2468A047CE
:101CA000DDF800E001B07047A800002089B0CDF851
:101CB00000E0019002910820FFF7AEF96F4A106032
:101CC0001820FFF7A9F96E4A106008214FF08040F4
:101CD000FFF758F906906B4A1088FFF7CDFA069A7D
:101CE000FEF7AAFF0690664A1068FFF7C5FA069A43
:101CF000FFF7D8FAFFF74AFA634A106010214FF055
:101D00008040FFF73FF90690604A1088FFF7B4FA69
:101D1000069AFEF791FF089007214FF08040FFF7E9
:101D200031F90690584A1068FFF7A6FA069AFFF7AD
:101D300051FA079007214FF08040FFF723F90690F2
:101D4000534A1088FFF798FA069AFFF743FA079A62
:101D5000FEF772FF089AFFF727F84E4A10600F212E
:101D60004FF08040FFF70EF906904B4A1088FFF7BE
:101D700083FA069AFEF760FF089008214FF0804032
:101D8000FFF700F90690404A1068FFF775FA069AC7
:101D9000FFF720FA079008214FF08040FFF7F2F894
:101DA00006903E4A1088FFF767FA069AFFF712FA84
:101DB000079AFEF741FF089AFEF7F6FF384A1060CF
:101DC0000F214FF08040FFF7DDF806902B4A106896
:101DD000FFF752FA069AFFF7FDF9069015214FF02A
:101DE0008040FFF7CFF80390039B2D4A10681A46F6
:101DF000FFF7F0F9069AFEF71FFF06900F214FF04C
:101E00008040FFF7BFF80390039B224A10681A46F0
:101E1000FFF7E0F90390039A0698FFF743FA214A87
:101E2000FFF7D8F9019A10600D214FF08040FFF7BD
:101E3000A9F80690144A1068FFF71EFA069AFFF7F1
:101E4000C9F907900A214FF08040FFF79BF80690F0
:101E5000154A1088FFF710FA069AFFF7BBF9079AA0
:101E6000FEF7EAFE114AFEF79FFF114AFFF7B2F9AB
:101E7000029A1060DDF800E009B0704730000020E1
:101E800034000020B600002038000020B000002000
:101E9000B40000203C000020AE000020B200002072
:101EA0004000002000002041B80000200000FA445B
:101EB0000000C84281B0CDF800E011E00846FFF70D
:101EC000A3FA16E00846FFF7BBFA12E00846FFF750
:101ED000AFFC0EE00846FFF7C7FC0AE0012008E06F
:101EE0000028EBD00128EDD02028EFD03028F1D009
:101EF000F4E7DDF800E001B07047FFFF81B015485E
:101F0000006840F001011348016013491348016063
:101F100010480168124801400E4801600D480168F0
:101F20006FF4802001400B4801600C4801686FF499
:101F3000FE00014009480160064801686FF0A050AA
:101F40000140044801604FF000010648016001B003
:101F5000704700BF001002400000FFF00410024074
:101F6000FFFFF6FE2C10024081B01CF8019B0BF81D
:101F7000019BBBEB0A0FF8D101B0704781B04FF065
:101F800000094FF0000CBDEB0A0F04DCBDEB0B0F9A
:101F900001DBD446EA464BF8049BBBEB0A0FFAD1AF
:101FA000BCEB0A0F05DDE246D9F800B00BF1040BDB
:101FB000F1E701B07047FFFF81B0CDF800E00A49BA
:101FC0000A48FFF75FFEFFF731FE4EF67F67C0F26B
:101FD00036077F1EFDD100BF00BF00BF00BF00BF9E
:101FE000DDF800E001B07047BC25000000250000CE
:101FF00081B0CDF800E01B491B48FFF757FE1B4896
:102000000121FFF7BFFC184800681949FFF714FDCC
:1020100000211848017002211548FFF7B3FC16484B
:102020000121FFF7AFFC0F4800681149FFF704FDDD
:1020300000211248017002210D48FFF7A3FC10484F
:102040000221FFF79FFC41F6FF27C0F2B70700BF50
:1020500000BF7F1EFDD100BF00BF00BFDDF800E064
:1020600001B070474800002044000020000000201C
:102070004C000020520000200B00002050000020E7
:1020800019000020FFFFFFFF81B0CDF800E0002223
:1020900002210020FFF7AEFC0C4801460020FFF7AC
:1020A00059FC42F280512020FFF704FF44F67F776D
:1020B000C0F2120700BF00BF7F1EFDD100BF00BFEE
:1020C00000BFDDF800E001B0704700BFB42500009C
:1020D00081B002490248016001B070474019010017
:1020E0008400002081B0FEE701B0704700F00EF8D8
:1020F00000F0B6FAFFF7ECFF00F064FAFFF7C4FF58
:10210000FFF75AFFFFF774FFFCE7FEE781B0CDF859
:1021100000E0464A464B474C47494BF680308142E7
:1021200006D94648006840F002014448016011E0C9
:1021300045F6C050814206D94048006840F0010190
:102140003E48016006E03D4801686FF0070001402D
:102150003A480160FFF7D2FE39480360394804600D
:10216000394802EA00013948016002F0010040B13B
:1021700019463648006800F00200002800D1F8E750
:1021800000E0194602F4803040B10B462F48006849
:1021900000F40030002800D1F8E700E00B4602F020
:1021A000805068B12948006840F08051274801609C
:1021B0002648006800F00050002800D1F8E7FFE74B
:1021C00002F0806078B12148006840F080611F48CB
:1021D000016011461A461D48006800F000600028A2
:1021E00000D1F8E701E011461A4601F0807070B1A5
:1021F0001648006840F08071144801601146134889
:10220000006800F0007000B9F9E70A46FFE70C48E3
:10221000006800F00C01900000F00C00814200D03A
:10222000F5E7DDF800E001B0704700BF810001056F
:1022300002841D00440601004019010000200240F4
:10224000041002402C100240FFFF0F00001002405B
:10225000000000000000000000000000000000007E
:10226000000000000000000000000000000000006E
:10227000000000000000000000000000000000005E
:10228000000000000000000000000000000000004E
:10229000000000000000000000000000000000003E
:1022A000000000000000000000000000000000002E
:1022B000000000000000000000000000000000001E
:1022C000000000000000000000000000000000000E
:1022D00000000000000000000000000000000000FE
:1022E00000000000000000000000000000000000EE
:1022F00000000000000000000000000000000000DE
:1023000000000000000000000000000000000000CD
:1023100000000000000000000000000000000000BD
:1023200000000000000000000000000000000000AD
:10233000000000000000000000000000000000009D
:10234000000000000000000000000000000000008D
:102350003800000039000000FFFFFFFF0000000010
:10236000000000000000000000000000000000006D
:10237000000000000000000000000000000000005D
:102380000000000018080000180000000000000015
:10239000000000000000000000000000000000003D
:1023A000000000000000000000000000000000002D
:1023B00000000000000000003000140809000000C8
:1023C0000A000000FFFFFFFF000000000000000007
:1023D00000000000000000000000000000000000FD
:1023E00000000000000000000000000000000000ED
:1023F00018080000180000000000000000000000A5
:1024000000000000000000000000000000000000CC
:1024100000000000000000000000000000000000BC
:10242000000000000400000035000000360000003D
:10243000FFFFFFFF000000000000000000000000A0
:10244000000000000000000000000000000000008C
:10245000000000000000000000000000180800005C
:102460001800000000000000000000000000000054
:10247000000000000000000000000000000000005C
:10248000000000000000000000000000000000004C
:10249000080000082A0000002B0000002C000000AB
:1024A000FFFFFFFF00000000000000000000000030
:1024B000000000000000000000000000000000001C
:1024C00000000000000000001808000018080000CC
:1024D00018080000000000000000000000000000DC
:1024E00000000000000000000000000000000000EC
:1024F00000000000000000000000000000112008A3
:10250000C1130000CD130000A9130000B513000093
:10251000F1130000FD130000D9130000E5130000C3
:10252000191900000D1900000119000025190000FB
:10253000FFFFFFFFFFFFFFFFFFFFFFFFFFFFFFFFAB
:10254000FFFFFFFFFFFFFFFFFFFFFFFFFFFFFFFF9B
:10255000FFFFFFFFFFFFFFFFFFFFFFFFFFFFFFFF8B
:1025600050726573737572653A200054656D7065BD
:102570007261747572653A20002D2D2D2D2D2D2D33
:102580002D2D2D2D004E614E003000494E4600FF8E
:10259000000000000000000000000000000000003B
:1025A0000000000000000000010203040102030417
:1025B000060708090700000004030000C10300002B
:1025C000A902000000B5DFF824B0DFF824A0DFF88E
:1025D00024C0FFF7C9FCDFF820B0DFF820A0DFF847
:1025E00020C0FFF7C1FC00BD704700BF0000002005
:1025F0002F00002060250000300000204400002053
:1026000090250000FFFFFFFFFFFFFFFFFFFFFFFF21
:10261000FFFFFFFFFFFFFFFFFFFFFFFFFFFFFFFFCA
:10262000FFFFFFFFFFFFFFFFFFFFFFFFFFFFFFFFBA
:10263000FFFFFFFFFFFFFFFFFFFFFFFFFFFFFFFFAA
:10264000FFFFFFFFFFFFFFFFFFFFFFFFFFFFFFFF9A
:10265000FFFFFFFFFFFFFFFFFFFFFFFFFFFFFFFF8A
:1026600000B5DFF810B0DFF810A0FFF787FC00BD61
:10267000704700BF00000020BC000020FFFFFFFFEC
:00000001FF
